:100000000C9488000C94B0000C94B0000C9468041C
:100010000C9468040C9468040C94B0000C94B00028
:100020000C94B0000C94B0000C94B0000C94B00090
:100030000C94B0000C94B0000C94B0000C94B00080
:100040000C94B1030C94B0000C9436040C9410047E
:100050000C94B0000C94B0000C94B0000C94B00060
:100060000C940D070C94B000AB01BC01D501E60166
:10007000FF010F0227023502440261027702920259
:10008000A602C402E202FE02150331034D0365031A
:1000900081039703B303CF03E303FA030D041F04A3
:1000A00035044B04630478049304AD04C504D604FA
:1000B000F70400000000240027002A0000000008C8
:1000C000000201000003040700000000000000001F
:1000D0000000000023002600290000000000250089
:1000E00028002B0004040404040404040202020295
:1000F00002020303030303030102040810204080EB
:10010000010204081020010204081020E80ACC0AA9
:1001100011241FBECFEFD8E0DEBFCDBF15E0A0E0B9
:10012000B1E0EAE6FEE102C005900D92AA31B10706
:10013000D9F726E0AAE1B5E001C01D92AE3FB207B3
:10014000E1F710E0C7E8D0E004C02197FE010E946B
:10015000260DC638D107C9F70E94B1080C94280FA4
:100160000C9400000895CF92DF92EF92FF920F93CC
:100170001F93CF93DF936C017A018B01C0E0D0E035
:10018000CE15DF0581F0D8016D918D01D601ED917D
:10019000FC910190F081E02DC6010995892B11F0A9
:1001A0002196EECF7E01C701DF91CF911F910F9174
:1001B000FF90EF90DF90CF900895FC01538D448D18
:1001C000252F30E0842F90E0821B930B541710F002
:1001D000CF96089501970895FC01918D828D98170F
:1001E00061F0828DDF01A80FB11D5D968C91928D1B
:1001F0009F5F9F73928F90E008958FEF9FEF089518
:10020000FC01918D828D981731F0828DE80FF11DE0
:10021000858D90E008958FEF9FEF0895FC01918DFB
:10022000228D892F90E0805C9F4F821B91098F73F4
:10023000992708958FEB95E00E940E0121E0892B0C
:1002400009F420E0822F0895FC01848DDF01A80FBE
:10025000B11DA35ABF4F2C91848D90E001968F73EE
:100260009927848FA689B7892C93A089B1898C910D
:10027000837080648C93938D848D981306C002885C
:10028000F389E02D80818F7D80830895EF92FF9226
:100290000F931F93CF93DF93EC0181E0888F9B8DA9
:1002A0008C8D981305C0E889F989808185FD26C069
:1002B000F62E0B8D10E00F5F1F4F0F731127E02EEE
:1002C0008C8DE8120CC00FB607FCFACFE889F989CB
:1002D000808185FFF5CFCE010E942401F1CF8B8D67
:1002E000FE01E80FF11DE35AFF4FF0829FB7F8942B
:1002F0000B8FEA89FB89808180620AC09FB7F894DE
:10030000EE89FF896083E889F98980818370806440
:1003100080839FBF81E090E0DF91CF911F910F918B
:10032000FF90EF900895CF93DF93EC01888D8823A1
:10033000C9F0EA89FB89808185FD05C0A889B98952
:100340008C9186FD0FC00FB607FCF5CF808185FF2D
:10035000F2CFA889B9898C9185FFEDCFCE010E949B
:100360002401E7CFDF91CF91089580E090E0892BC1
:1003700029F00E941A0181110C9400000895209127
:100380005D0530915E052817390771F490915C0581
:1003900080915B05981741F0E0915C05F0E0E55E27
:1003A000FA4F808190E008958FEF9FEF08951F939B
:1003B000CF93DF93DC015C968D919C915D970097C4
:1003C00039F421E030E013963C932E9312973BC012
:1003D0005196ED91FC91529750962C915097322F57
:1003E00030951FB75E964C915E97742F727041FDE9
:1003F0006095F8944081772311F0422B01C043238C
:100400004083EC012197F1F748E0508160FF02C082
:10041000522B01C053235083EC012197F1F76695CD
:10042000415099F78081772319F08323808302C09C
:10043000282B20831FBF5C968D919C915D9701971F
:10044000F1F781E090E0DF91CF911F910895209125
:100450005D0530915E052817390771F480915B05C1
:1004600020915C0590E0805C9F4F821B910960E4C5
:1004700070E00E94780C089580E090E0089520914B
:100480005D0530915E0528173907B9F490915C0538
:1004900080915B05981789F0E0915C05F0E0E55EDE
:1004A000FA4F808120915C0530E02F5F3F4F2F7322
:1004B000332720935C0590E008958FEF9FEF089518
:1004C00080E090E008950E94130F0F931F93CF9345
:1004D000DF93EC0188819981009729F02A813B8183
:1004E0002617370788F48B016F5F7F4F0E944D0EF0
:1004F000009761F0998388831B830A832C813D8157
:10050000232B11F4FC01108281E001C080E0DF9117
:10051000CF911F910F9108953FB7F8948091660590
:1005200090916705A0916805B091690526B5A89BD3
:1005300005C02F3F19F00196A11DB11D3FBFBA2F75
:10054000A92F982F8827820F911DA11DB11DBC01D5
:10055000CD0142E0660F771F881F991F4A95D1F79A
:100560000895CF92DF92EF92FF920F931F93CF9354
:10057000DF93FC01C48121E020938A05C0931A0512
:1005800010928E0510928D058485682B8CE596E07F
:100590000E948205D0918D05D13208F0BAC00E9428
:1005A0008C026B017C0180919905882311F1809167
:1005B000900590919105A0919205B0919305892B9A
:1005C0008A2B8B2B81F30E948C0200919005109155
:1005D00091052091920530919305DC01CB018C1996
:1005E0009D09AE09BF09081719072A073B07D8F666
:1005F00081C082E08093990581E080939B058FEF15
:10060000809398051092BD05D093BC05AAE6B5E08D
:10061000ECE9F5E080E0D81721F09D9191938F5F90
:10062000FACF1092BE058091BE05CC0FC82BC093A7
:10063000BE0580919A05813089F510929A050E9435
:100640008C026B017C018091BE058093BB00809180
:10065000900590919105A0919205B0919305892BF9
:100660008A2B8B2BA9F00E948C020091900510918F
:1006700091052091920530919305DC01CB018C19F5
:100680009D09AE09BF09081719072A073B0790F112
:100690008091BC0083FDD7CF85EC01C085EE8093AF
:1006A000BC000E948C026B017C0180919905823014
:1006B00031F58091900590919105A0919205B091AE
:1006C0009305892B8A2B8B2B81F30E948C0200913E
:1006D0009005109191052091920530919305DC01D0
:1006E000CB018C199D09AE09BF09081719072A0704
:1006F0003B07D8F680918F050E94B4060AC080910E
:1007000098058F3F31F080919805803211F08091EB
:10071000980510928E0510928D0510928A05DF9132
:10072000CF911F910F91FF90EF90DF90CF900895A0
:100730000F931F93CF938C01C62F0E94B1026C2F91
:100740006460C8010E94B1026C2F6B7FC8010E94D7
:10075000B10283EC90E00197F1F7CF911F910F91D7
:1007600008951F920F920FB60F9211242F933F936B
:100770008F939F93AF93BF93809162059091630590
:10078000A0916405B09165053091610523E0230FC8
:100790002D3720F40196A11DB11D05C026E8230FB9
:1007A0000296A11DB11D209361058093620590936F
:1007B0006305A0936405B0936505809166059091EB
:1007C0006705A0916805B09169050196A11DB11D4D
:1007D0008093660590936705A0936805B0936905BB
:1007E000BF91AF919F918F913F912F910F900FBE2D
:1007F0000F901F9018956115710579F0FB0101901C
:100800000020E9F73197AF01461B570BDC01ED9152
:10081000FC910280F381E02D099480E090E008953E
:100820001F920F920FB60F9211242F933F934F9365
:100830005F936F937F938F939F93AF93BF93EF9348
:10084000FF938FEB95E00E942401FF91EF91BF9100
:10085000AF919F918F917F916F915F914F913F9158
:100860002F910F900FBE0F901F9018951F920F920F
:100870000FB60F9211242F938F939F93EF93FF93B3
:10088000E091CF05F091D0058081E091D505F09100
:10089000D60582FD12C090818091D8058F5F8F733D
:1008A0002091D905821751F0E091D805F0E0E1548C
:1008B000FA4F958F8093D80501C08081FF91EF9109
:1008C0009F918F912F910F900FBE0F901F901895B1
:1008D0001F920F920FB60F9211242F933F934F93B5
:1008E0005F936F937F938F939F93AF93BF93EF9398
:1008F000FF93E0915D05F0915E05309709F451C0DA
:10090000968DA685B785858591FF04C09C91892326
:1009100029F447C09C91892309F043C0A389B48975
:100920009C918589809589238C93868997890197E5
:10093000F1F7608D718DA685B785558538E020E08B
:10094000CB010197F1F7822F90E095958795282F9D
:100950004C91452309F02068315091F7868D81FD37
:10096000209580915B0590E001968F7399273091D7
:100970005C05381749F0A0915B05B0E0A55EBA4F61
:100980002C9380935B0503C0868D8160868F828D5A
:10099000938D0197F1F7A389B4899C918589892B5F
:1009A0008C93FF91EF91BF91AF919F918F917F9128
:1009B0006F915F914F913F912F910F900FBE0F90CC
:1009C0001F9018950F931F93CF93DF938C01C62F21
:1009D000D42F607F642B0E94980380E1C89FB001F0
:1009E00011246D2BC801DF91CF911F910F910C94B1
:1009F000980341E00E94E20481E090E00895409174
:100A0000D506262F30E0240F311D21323105DCF4CC
:100A1000209199052430C9F4FC0180E090E086170C
:100A200058F43091D5062191DC01AB54B94FA30F96
:100A3000B11D2C930196F3CF8091D506680F60937A
:100A4000D50680E0089581E0089582E00895089534
:100A500008950895E0918C0580918B05E81730F496
:100A6000F0E0EC56F94F808190E008958FEF9FEF12
:100A7000089590918C0580918B05981750F4E92F7B
:100A8000F0E0EC56F94F208130E09F5F90938C05A9
:100A900002C02FEF3FEFC901089580918B0590E0D0
:100AA00020918C05821B91090895CF92DF92EF92DD
:100AB000FF920F931F93CF93DF937C01CB018A01A9
:100AC00020918A05222389F0EB016B01C40ED51E0B
:100AD000CC15DD0569F06991D701ED91FC9101908C
:100AE000F081E02DC7010995F3CF642F0E94FF0428
:100AF000C801DF91CF911F910F91FF90EF90DF9090
:100B0000CF900895CF93DF931F92CDB7DEB769835F
:100B100020918A052223D1F020918D05203240F0CA
:100B200021E030E0FC013383228380E090E015C0B7
:100B300080918E05E82FF0E0E659FA4F9981908375
:100B40008F5F80938E0580938D0505C061E0CE0197
:100B500001960E94FF0481E090E00F90DF91CF9119
:100B6000089590E0FC01E454FF4F2491FC01E8500B
:100B7000FF4F3491FC01EC51FF4FE491EE2309F457
:100B80003CC0222339F1233091F038F42130A9F010
:100B9000223001F584B58F7D12C0273091F02830C6
:100BA000A1F02430B9F4809180008F7D03C0809142
:100BB00080008F77809380000DC084B58F7784BDCF
:100BC00009C08091B0008F7703C08091B0008F7D05
:100BD0008093B000F0E0EE0FFF1FE652FF4FA591AB
:100BE000B4919FB7F894611104C08C91309538236B
:100BF00002C0EC913E2B3C939FBF0895CF93DF93AF
:100C0000BC018FEB95E00E94FB03EC0168E671E00C
:100C10008FEB95E00E94FB038C0F9D1FDF91CF911E
:100C20000895CF93DF93CDB7DEB728970FB6F8942A
:100C3000DEBF0FBECDBF98E0EAE0F1E0DE01119625
:100C400001900D929A95E1F790918F06961710F406
:100C50006FEF690FFE013196E60FF11DE60FF11DF2
:100C60006081680F606840E087E896E028960FB6DC
:100C7000F894DEBF0FBECDBFDF91CF910C94E2049C
:100C800040E061E087E896E00E94E2048BE39FE1A8
:100C90000197F1F780919006882321F060E080E0D1
:100CA0000C94110608958F929F92AF92BF920F936A
:100CB0001F93CF93DF93CDB7DEB7A1970FB6F8940C
:100CC000DEBF0FBECDBF19A2423008F44AE08E014C
:100CD0000F5D1F4F842E912CA12CB12CA5019401E6
:100CE0000E948C0CE62FB901CA0101501109EA30AB
:100CF00014F4E05D01C0E95CD801EC93232B242BB4
:100D0000252B61F7B8018FEB95E00E94FB03A196BC
:100D10000FB6F894DEBF0FBECDBFDF91CF911F910C
:100D20000F91BF90AF909F908F900895109299056A
:100D300081E080939B0510929A0561E082E10E9418
:100D4000B10561E083E10E94B105E9EBF0E080814B
:100D50008E7F808380818D7F808388E48093B8003C
:100D600085E48093BC000895CF93DF9391E0909346
:100D7000B4068823B9F0C091B800D091BA00809130
:100D8000BC008A7B8093BC0060E082E10E94B105D8
:100D900060E083E10E94B1050E949606D093BA00FC
:100DA000C093B800DF91CF91089585ED8093BC008A
:100DB0008091900590919105A0919205B091930535
:100DC0000796A11DB11D23E0B695A7959795879528
:100DD0002A95D1F72091BC0024FF1CC040919005BA
:100DE000509191056091920570919305452B462B8A
:100DF000472B81F30097A105B10541F025E32A9522
:100E0000F1F700000197A109B109E4CF80918F05A6
:100E10000C94B4061092990508951F920F920FB684
:100E20000F9211242F933F934F935F936F937F9370
:100E30008F939F93AF93BF93EF93FF938091B900EC
:100E4000887F803609F49CC068F5883209F45BC05D
:100E500090F4803109F454C038F4882309F4F6C0C2
:100E6000883009F44DC0F6C0883109F44CC0803296
:100E700009F45DC0EFC0803409F468C048F48033E1
:100E800009F455C0883309F0E5C080939805D8C0AF
:100E9000803509F44FC0883509F45DC0883409F005
:100EA000D9C0D6C0883909F4C7C0A8F4883709F476
:100EB00067C038F4883609F463C0803709F460C02D
:100EC000C9C0883809F4B8C0803909F45FC08038D7
:100ED00009F0C0C05BC0803B09F486C038F4803A9A
:100EE00009F466C0883A09F47FC0B4C0803C09F4B4
:100EF000A7C0883C09F4A4C0883B09F48AC0AAC0F2
:100F00008091BE0510C09091BD058091BC059817D9
:100F100070F5E091BD0581E08E0F8093BD05F0E096
:100F2000E456FA4F80818093BB0085EC86C08093A5
:100F300098058EC0E091BD0581E08E0F8093BD05C0
:100F40008091BB00F0E0E456FA4F80839091BD059C
:100F50008091BC056EC0E091BD0581E08E0F80934D
:100F6000BD058091BB00F0E0E456FA4F808380918C
:100F70009B0581116DC081E080939A0584EA61C070
:100F800083E0809399051092F706CFCF8091F70602
:100F9000803208F051C0E091F70681E08E0F809317
:100FA000F7068091BB00F0E0E952F94F8083BDCF96
:100FB00085EC8093BC00109299058091F7068032F1
:100FC00030F4E091F706F0E0E952F94F10826091B9
:100FD000F70670E0E0919605F091970587ED96E0B1
:100FE00009951092F70636C084E080939905109217
:100FF000D6061092D506E0919405F09195050995D5
:101000008091D506811105C081E08093D5061092AC
:10101000B506E091D60681E08E0F8093D606F0E00B
:10102000EB54F94F80818093BB009091D60680915C
:10103000D506981708F479CF85E88093BC000AC0DC
:1010400085EC8093BC001092990504C0109298051D
:101050000E94D506FF91EF91BF91AF919F918F9123
:101060007F916F915F914F913F912F910F900FBEA4
:101070000F901F901895CF93DF9390E0FC01E850FC
:10108000FF4F2491FC01EC51FF4F8491882361F1C3
:1010900090E0880F991FFC01EE54FF4FC591D49149
:1010A000FC01E652FF4FA591B491611109C09FB7B1
:1010B000F8948881209582238883EC912E230BC09D
:1010C000623061F49FB7F8948881322F3095832382
:1010D0008883EC912E2B2C939FBF06C08FB7F8947A
:1010E000E8812E2B28838FBFDF91CF9108958F92B7
:1010F0009F92AF92BF92CF92DF92EF92FF926B01DD
:101100007C010E948C024B015C01C114D104E104FA
:10111000F104F1F00E948C02DC01CB0188199909DD
:10112000AA09BB09883E9340A105B10570F321E0EF
:10113000C21AD108E108F10888EE880E83E0981EF3
:10114000A11CB11CC114D104E104F10419F7DDCFD5
:10115000FF90EF90DF90CF90BF90AF909F908F90D7
:101160000895CF93DF93CDB7DEB72C970FB6F894E1
:10117000DEBF0FBECDBF789484B5826084BD84B5D8
:10118000816084BD85B5826085BD85B5816085BD82
:1011900080916E00816080936E001092810080913A
:1011A00081008260809381008091810081608093C2
:1011B0008100809180008160809380008091B100E7
:1011C00084608093B1008091B00081608093B00012
:1011D00080917A00846080937A0080917A008260A6
:1011E00080937A0080917A00816080937A00809168
:1011F0007A00806880937A001092C10060E170E00C
:1012000080E090E00E945B0C10928C0510928B05A0
:1012100010928E0510928D050E94960687E295E049
:10122000909395058093940588E295E090939705B7
:101230008093960510928C0680919206823018F069
:1012400098E090938C0680938F0662E370E080E0D4
:1012500090E00E9477086091930687E896E00E94EC
:10126000B10268EE73E080E090E00E94770860E3EE
:1012700087E896E00E9498030BE416E4C801019702
:10128000F1F760E387E896E00E949803C8010197B0
:10129000F1F760E387E896E00E94980383E592E027
:1012A0000197F1F760E287E896E00E949803609169
:1012B0008C06606240E087E896E00E94E20484E0E9
:1012C00080938D0640E06CE087E896E00E94E2049F
:1012D0000E94400612E010938E0640E066E087E828
:1012E00096E00E94E20440E062E087E896E00E9417
:1012F000E2048BE39FE10197F1F788E08093930686
:1013000060E087E896E00E94B10260E08AE00E9417
:10131000110664E571E087E896E00E94FB0361E056
:101320008EE10E94110662E671E087E896E00E9475
:10133000FB0360EA7FE080E090E00E9477080E9473
:10134000400660E08AE00E943B0860E08BE00E947B
:101350003B0860E08CE00E943B08E091CF05F091F3
:10136000D0051083E091CB05F091CC051082E0917F
:10137000CD05F091CE058FEC80831092D705E091DA
:10138000D305F091D40586E08083E091D105F091FA
:10139000D205808180618083E091D105F091D205F2
:1013A000808188608083E091D105F091D2058081B1
:1013B00080688083E091D105F091D20580818F7D96
:1013C000808319B183B1169516958295880F880F81
:1013D000807C812B182F1095C12ED12CE12CF12C63
:1013E0004AE0C701B6010E94530668E671E08FEB40
:1013F00095E00E94FB038BE691E00E94FE054AE027
:10140000C701B6010E94530668E671E08FEB95E0D4
:101410000E94FB0384E991E00E94FE05812F90E089
:101420009093600580935F0580915F0590916005C2
:10143000892B21F01092600510925F0518861F829B
:101440001A8619861C861B8660E070E0CE0107961E
:101450000E9465022F81388581110DC0211531054B
:1014600019F0C9010E94C40D18861F821C861B86B4
:101470001A86198607C01C861B866AE671E0C901B8
:101480000E94210F0E940D0C1A8219821C821B825D
:101490001E821D8260E070E0CE0101960E9465020E
:1014A00029813A8181110DC02115310519F0C90139
:1014B0000E94C40D1A8219821E821D821C821B8208
:1014C00007C01E821D826AE671E0C9010E94210FD9
:1014D0008DE791E00E94FE0508E610E065EA71E004
:1014E0008FEB95E00E94FB03F801819191918F01B0
:1014F0000E94FE05F0E0023B1F0781F78F8198856F
:10150000009739F069817A8161157105B9F50E94FA
:10151000C40D89819A8198878F838B819C819A875A
:1015200089878D819E819C878B871A8219821C8274
:101530001B821E821D8289819A81009711F00E9470
:10154000C40D4B855C856F8178858FEB95E00E949B
:10155000B30068E671E08FEB95E00E94FB0368E85A
:1015600073E180E090E00E9477088F819885009772
:1015700011F00E94C40D0E94B50156CF49855A85CD
:101580002D813E814217530710F20E94210F8D8159
:101590009E819C878B87CDCF8AE391E090936906EB
:1015A0008093680680915D0590915E05885696400F
:1015B00071F4E0917B06F0917C06908180917D062C
:1015C00080958923808310925E0510925D050895B1
:1015D00010925F0610925E0688EE93E0A0E0B0E005
:1015E0008093600690936106A0936206B0936306B1
:1015F00026E131E030935D0620935C061092C2052F
:101600001092C1058093C3059093C405A093C505AE
:10161000B093C60528E231E03093C0052093BF05A2
:1016200025EC30E03093CC052093CB0524EC30E062
:101630003093CE052093CD0520EC30E03093D005DB
:101640002093CF0521EC30E03093D2052093D105D3
:1016500022EC30E03093D4052093D30526EC30E023
:101660003093D6052093D5051092D8051092D90550
:101670001092DA051092DB052CE536E03093F9067E
:101680002093F80610928A06109289062CE431E025
:1016900030938806209387061092900627E22093C5
:1016A0008B0628E22093910622E020939206109266
:1016B000930610926B0610926A0680936C069093C4
:1016C0006D06A0936E06B0936F068AE391E0909347
:1016D00069068093680610927F0610927E0610922B
:1016E0008106109280061092830610928206109254
:1016F000850610928406609186066E7F6D7F6093EA
:1017000086066695617081E068278FE00E94B105CA
:1017100061E08FE00E943B08E7E0F1E0E491E093B4
:101720007806E3EFF0E0E491F0E0EE0FFF1FE65201
:10173000FF4F8591949190937A068093790660E0AB
:101740008EE00E943B088091860681FD04C061E026
:101750008EE00E94B1058EE080937406E6E0F1E031
:10176000E491E0937506E2EFF0E0E491F0E0EE0F33
:10177000FF1FE053FF4F85919491909377068093DC
:10178000760608958F929F92AF92BF92CF92DF928A
:10179000EF92FF92CF93DF93EC01688179818A8188
:1017A0009B81611571058105910521F464E279ED54
:1017B0008BE597E02DE133EF41E050E00E94AE0C65
:1017C00049015A019B01AC01A7EAB1E40E94CD0C8A
:1017D0006B017C01ACEEB4EFA50194010E94DB0C1F
:1017E000DC01CB018C0D9D1DAE1DBF1DB7FF03C0DD
:1017F0000197A109B04888839983AA83BB83BC0160
:10180000CD019F77DF91CF91FF90EF90DF90CF9048
:10181000BF90AF909F908F9008958F929F92AF92BC
:10182000BF92CF92DF92EF92FF9260910001709190
:1018300001018091020190910301611571058105FB
:10184000910521F464E279ED8BE597E02DE133EF2A
:1018500041E050E00E94AE0C49015A019B01AC01ED
:10186000A7EAB1E40E94CD0C6B017C01ACEEB4EFB1
:10187000A50194010E94DB0CDC01CB018C0D9D1DA8
:10188000AE1DBF1DB7FF03C00197A109B0488093EB
:10189000000190930101A0930201B0930301BC01E8
:1018A000CD019F77FF90EF90DF90CF90BF90AF90EA
:1018B0009F908F9008956093000170930101809331
:1018C0000201909303010895AA1BBB1B51E107C0BD
:1018D000AA1FBB1FA617B70710F0A61BB70B881FC0
:1018E000991F5A95A9F780959095BC01CD0108954F
:1018F00097FB072E16F4009407D077FD09D00E94BD
:10190000640C07FC05D03EF4909581959F4F089597
:10191000709561957F4F0895A1E21A2EAA1BBB1BFB
:10192000FD010DC0AA1FBB1FEE1FFF1FA217B307AB
:10193000E407F50720F0A21BB30BE40BF50B661FC1
:10194000771F881F991F1A9469F760957095809585
:1019500090959B01AC01BD01CF010895052E97FB29
:101960001EF400940E94C50C57FD07D00E948C0CF9
:1019700007FC03D04EF40C94C50C5095409530955F
:1019800021953F4F4F4F5F4F0895909580957095EB
:1019900061957F4F8F4F9F4F08950E94170DA59F10
:1019A000900DB49F900DA49F800D911D112408955A
:1019B000B7FF0C94CD0C0E94CD0C821B930B0895A5
:1019C0002F923F924F925F926F927F928F929F924F
:1019D000AF92BF92CF92DF92EF92FF920F931F933D
:1019E000CF93DF93CDB7DEB7CA1BDB0B0FB6F894EE
:1019F000DEBF0FBECDBF09942A88398848885F842E
:101A00006E847D848C849B84AA84B984C884DF809E
:101A1000EE80FD800C811B81AA81B981CE0FD11D82
:101A20000FB6F894DEBF0FBECDBFED010895A29FA3
:101A3000B001B39FC001A39F700D811D1124911DA2
:101A4000B29F700D811D1124911D0895EE0FFF1F8F
:101A50000590F491E02D09940F931F93CF93DF939A
:101A60008230910510F482E090E0E091FC06F09164
:101A7000FD0620E030E0A0E0B0E0309719F14081B1
:101A800051810281138148175907C8F084179507BF
:101A900069F4109731F012960C93129713961C93D9
:101AA00027C00093FC061093FD0622C021153105C6
:101AB00019F04217530718F49A01BD01EF01DF0135
:101AC000F801DBCF21153105F9F0281B390B243043
:101AD000310580F48A819B816115710521F0FB013C
:101AE0009383828304C09093FD068093FC06FE01DD
:101AF000329644C0FE01E20FF31F8193919322506E
:101B00003109398328833AC02091FA063091FB06C7
:101B1000232B41F420910601309107013093FB06FD
:101B20002093FA0620910401309105012115310519
:101B300041F42DB73EB74091080150910901241B93
:101B4000350BE091FA06F091FB06E217F307A0F4DB
:101B50002E1B3F0B2817390778F0AC014E5F5F4F03
:101B60002417350748F04E0F5F1F5093FB06409334
:101B7000FA068193919302C0E0E0F0E0CF01DF919B
:101B8000CF911F910F910895CF93DF93009709F4A0
:101B900081C0FC01329713821282A091FC06B091A1
:101BA000FD06109781F420813181820F931F2091CF
:101BB000FA063091FB062817390751F5F093FB061A
:101BC000E093FA0667C0ED0120E030E0CE17DF07B2
:101BD00040F44A815B819E0141155105F1F0EA0113
:101BE000F5CFD383C28340815181840F951FC817DD
:101BF000D90759F488819981840F951F02969183A2
:101C000080838A819B81938382832115310529F406
:101C1000F093FD06E093FC063DC0E901FB83EA83F7
:101C200049915991C40FD51FEC17FD0761F48081CC
:101C30009181840F951F0296E9019983888382819F
:101C400093819B838A83E0E0F0E012968D919C91D2
:101C50001397009719F0FD01DC01F7CF8D919C914E
:101C600011979D012E5F3F4F820F931F2091FA061F
:101C70003091FB062817390769F4309729F4109240
:101C8000FD061092FC0602C013821282B093FB067E
:101C9000A093FA06DF91CF910895A0E0B0E0E3E5CC
:101CA000FEE00C94E40CEC01009721F4CB010E94BF
:101CB0002C0DB4C0FC01E60FF71F9C012250310926
:101CC000E217F30708F4A8C0D9010D911C911197F0
:101CD00006171707B0F00530110508F49BC0C801BE
:101CE00004978617970708F495C002501109061B40
:101CF000170B019311936D937C93CF010E94C40D38
:101D000089C05B01A01AB10A4C01800E911EA091FE
:101D1000FC06B091FD06612C712CE12CF12C109782
:101D200009F446C08D919C911197A815B905B1F59C
:101D30006C0142E0C40ED11CCA14DB0478F14C01E2
:101D40008A189B08640142E0C40ED11C1296BC9014
:101D500012971396AC91B5E0CB16D10440F0B28245
:101D6000A38391828082D9016D937C9309C00E5F19
:101D70001F4F800F911FF90191838083EB2DFA2F64
:101D8000E114F10431F0D7011396FC93EE9312970E
:101D900041C0F093FD06E093FC063CC0681679064E
:101DA00008F43C017D0112960D90BC91A02DB7CF97
:101DB0008091FA069091FB0688169906E1F4661662
:101DC0007706C8F48091040190910501009741F4D1
:101DD0008DB79EB74091080150910901841B950B66
:101DE000E817F907C8F4F093FB06E093FA06F90147
:101DF000718360830FC0CB010E942C0D7C01009782
:101E000059F0A801BE010E94180FCE010E94C40D16
:101E1000C70104C0CE0102C080E090E0CDB7DEB7BC
:101E2000EEE00C94000D81E090E0F8940C94280F03
:101E3000FB01DC0102C001900D9241505040D8F7E7
:101E40000895FB01DC0101900D920020E1F7089557
:101E500010E0C7E8D0E004C0FE010E94260D2196E4
:0A1E6000C838D107C9F7F894FFCF86
:101E6A00010000000000FE062000000040001400EF
:101E7A0054000000000082055505600229054D0541
:101E8A0039052A05000000004601B300DD00930170
:101E9A000E01EC00000100000000D701B30060024F
:101EAA00290527023F02BF0100000000F904B30020
:101EBA006002B200436F72617A7A612050616E6586
:101ECA006C006279204554000D0A002B2B2B2B2B1A
:101EDA002B2B2B2B2B2B2B2B2B2B2B2B003D3D3D3D
:101EEA003D3D3D3D3D3D3D3D3D3D3D3D3D3D3D3D18
:101EFA003D3D3D3D3D3D3D3D3D3D3D3D3D3D3D3D08
:101F0A003D3D3D3D006275663D2000312E4652370B
:101F1A003720456D657267656E637900322E4652C9
:101F2A0037372050726F74656374696F6E206775F6
:101F3A006172647300332E4943373620456D6572EA
:101F4A0067656E637900322E494337362050726FC7
:101F5A0074656374696F6E206775617264730035A6
:101F6A002E546F727175652073656E736F720036C9
:101F7A002E507265737375726520706C617465207A
:101F8A0073656E736F7200372E416972206D6973C3
:101F9A0073696E6700382E54726179206D697373A4
:101FAA00696E6700392E4164766572746973696E69
:101FBA006720696E73657274206D697373696E67E1
:101FCA000031302E466F696C20526F6C6C20466966
:101FDA006E69736865640031312E546561722074CC
:101FEA0061706520726F6C6C2066696E69736865D2
:101FFA00640031322E466C61672072656C6C207306
:10200A0061666574790031332E46523737204F7531
:10201A00742072616E67652074656D706572617493
:10202A007572650031342E49433736204F75742056
:10203A0072616E67652074656D7065726174757220
:10204A00650031352E46523737206D6F746F722016
:10205A00746865726D616C2072656C6179003136E5
:10206A002E4652373720696E766572746572206122
:10207A006C61726D0031372E4652373720627261B9
:10208A006B6520746865726D616C2072656C61792C
:10209A000031382E49433736206D6F746F722074C1
:1020AA006865726D616C2072656C61790031392ED8
:1020BA004943373620696E76657274657220616CA1
:1020CA0061726D730032302E494337362062726175
:1020DA006B6520746865726D616C2072656C6179DC
:1020EA000032312E50756D7020746865726D616CA6
:1020FA002072656C61790032322E46523737206978
:10210A006E666565642062656C7420746865726DBC
:10211A00616C0032332E4943373620696E66656535
:10212A00642062656C7420746865726D616C00323B
:10213A00342E436172746F6E206C6F77206C6576F3
:10214A00656C0032352E414420696E7365727420C5
:10215A006C6F77206C6576656C0032362E57726F1D
:10216A006E672073697A6520677275700032372E40
:10217A00476C7565206E6F742072656164790032F0
:10218A00382E456E636F6465722046523737206178
:10219A006C61726D0032392E456E636F6465722010
:1021AA004943373620616C61726D0033302E496EB7
:1021BA00666565642070726F6475637420616C6112
:1021CA00726D0033312E46656564207075736865DB
:1021DA007220616C61726D0033322E47726F7570B6
:1021EA0065207075736865722061726D20616C611B
:1021FA00726D0033332E43656C6C6F66616E2063BB
:10220A006F6E74726F6C20616C61726D0033342E64
:10221A00466F7277617264207075736865722061A7
:10222A006C61726D0033352E4C61626C6520636F90
:10223A006E74726F6C0033362E49433736206F75D1
:10224A007466656564206D6F746F7220696E2066AE
:10225A0061696C7572650033372E5175616C6974EA
:10226A007920636F6E74726F6C202D206661756CB5
:0A227A007420696E20626F78000086
:00000001FF
